{
  "contractName": "Pathon",
  "abi": [
    {
      "anonymous": false,
      "inputs": [
        {
          "indexed": false,
          "internalType": "uint256",
          "name": "id",
          "type": "uint256"
        },
        {
          "indexed": false,
          "internalType": "string",
          "name": "title",
          "type": "string"
        },
        {
          "indexed": false,
          "internalType": "string",
          "name": "imageHash",
          "type": "string"
        },
        {
          "indexed": false,
          "internalType": "string",
          "name": "tagline",
          "type": "string"
        },
        {
          "indexed": false,
          "internalType": "string",
          "name": "description",
          "type": "string"
        },
        {
          "indexed": false,
          "internalType": "string",
          "name": "projectUrl",
          "type": "string"
        },
        {
          "indexed": false,
          "internalType": "uint256",
          "name": "tipAmount",
          "type": "uint256"
        },
        {
          "indexed": false,
          "internalType": "address payable",
          "name": "author",
          "type": "address"
        }
      ],
      "name": "PostCreated",
      "type": "event"
    },
    {
      "anonymous": false,
      "inputs": [
        {
          "indexed": false,
          "internalType": "uint256",
          "name": "id",
          "type": "uint256"
        },
        {
          "indexed": false,
          "internalType": "string",
          "name": "title",
          "type": "string"
        },
        {
          "indexed": false,
          "internalType": "string",
          "name": "imageHash",
          "type": "string"
        },
        {
          "indexed": false,
          "internalType": "string",
          "name": "tagline",
          "type": "string"
        },
        {
          "indexed": false,
          "internalType": "string",
          "name": "description",
          "type": "string"
        },
        {
          "indexed": false,
          "internalType": "string",
          "name": "projectUrl",
          "type": "string"
        },
        {
          "indexed": false,
          "internalType": "uint256",
          "name": "tipAmount",
          "type": "uint256"
        },
        {
          "indexed": false,
          "internalType": "address payable",
          "name": "author",
          "type": "address"
        }
      ],
      "name": "PostTipped",
      "type": "event"
    },
    {
      "constant": true,
      "inputs": [],
      "name": "name",
      "outputs": [
        {
          "internalType": "string",
          "name": "",
          "type": "string"
        }
      ],
      "payable": false,
      "stateMutability": "view",
      "type": "function"
    },
    {
      "constant": true,
      "inputs": [],
      "name": "postCount",
      "outputs": [
        {
          "internalType": "uint256",
          "name": "",
          "type": "uint256"
        }
      ],
      "payable": false,
      "stateMutability": "view",
      "type": "function"
    },
    {
      "constant": true,
      "inputs": [
        {
          "internalType": "uint256",
          "name": "",
          "type": "uint256"
        }
      ],
      "name": "posts",
      "outputs": [
        {
          "internalType": "uint256",
          "name": "id",
          "type": "uint256"
        },
        {
          "internalType": "string",
          "name": "title",
          "type": "string"
        },
        {
          "internalType": "string",
          "name": "imageHash",
          "type": "string"
        },
        {
          "internalType": "string",
          "name": "tagline",
          "type": "string"
        },
        {
          "internalType": "string",
          "name": "description",
          "type": "string"
        },
        {
          "internalType": "string",
          "name": "projectUrl",
          "type": "string"
        },
        {
          "internalType": "uint256",
          "name": "tipAmount",
          "type": "uint256"
        },
        {
          "internalType": "address payable",
          "name": "author",
          "type": "address"
        }
      ],
      "payable": false,
      "stateMutability": "view",
      "type": "function"
    },
    {
      "constant": false,
      "inputs": [
        {
          "internalType": "string",
          "name": "_imgHash",
          "type": "string"
        },
        {
          "internalType": "string",
          "name": "_title",
          "type": "string"
        },
        {
          "internalType": "string",
          "name": "_tagline",
          "type": "string"
        },
        {
          "internalType": "string",
          "name": "_description",
          "type": "string"
        },
        {
          "internalType": "string",
          "name": "_projecturl",
          "type": "string"
        }
      ],
      "name": "uploadPost",
      "outputs": [],
      "payable": false,
      "stateMutability": "nonpayable",
      "type": "function"
    },
    {
      "constant": false,
      "inputs": [
        {
          "internalType": "uint256",
          "name": "_id",
          "type": "uint256"
        }
      ],
      "name": "tipPostOwner",
      "outputs": [],
      "payable": true,
      "stateMutability": "payable",
      "type": "function"
    }
  ],
  "bytecode": "0x60806040526040518060400160405280600681526020017f506174686f6e000000000000000000000000000000000000000000000000000081525060009080519060200190620000519291906200006b565b5060006001553480156200006457600080fd5b506200011a565b828054600181600116156101000203166002900490600052602060002090601f016020900481019282601f10620000ae57805160ff1916838001178555620000df565b82800160010185558215620000df579182015b82811115620000de578251825591602001919060010190620000c1565b5b509050620000ee9190620000f2565b5090565b6200011791905b8082111562000113576000816000905550600101620000f9565b5090565b90565b6118aa806200012a6000396000f3fe60806040526004361061004a5760003560e01c806306fdde031461004f5780630b1e7f83146100df57806317906c2e14610384578063cdbd6276146103af578063d6313c06146106d3575b600080fd5b34801561005b57600080fd5b50610064610701565b6040518080602001828103825283818151815260200191508051906020019080838360005b838110156100a4578082015181840152602081019050610089565b50505050905090810190601f1680156100d15780820380516001836020036101000a031916815260200191505b509250505060405180910390f35b3480156100eb57600080fd5b506101186004803603602081101561010257600080fd5b810190808035906020019092919050505061079f565b6040518089815260200180602001806020018060200180602001806020018881526020018773ffffffffffffffffffffffffffffffffffffffff1673ffffffffffffffffffffffffffffffffffffffff16815260200186810386528d818151815260200191508051906020019080838360005b838110156101a657808201518184015260208101905061018b565b50505050905090810190601f1680156101d35780820380516001836020036101000a031916815260200191505b5086810385528c818151815260200191508051906020019080838360005b8381101561020c5780820151818401526020810190506101f1565b50505050905090810190601f1680156102395780820380516001836020036101000a031916815260200191505b5086810384528b818151815260200191508051906020019080838360005b83811015610272578082015181840152602081019050610257565b50505050905090810190601f16801561029f5780820380516001836020036101000a031916815260200191505b5086810383528a818151815260200191508051906020019080838360005b838110156102d85780820151818401526020810190506102bd565b50505050905090810190601f1680156103055780820380516001836020036101000a031916815260200191505b50868103825289818151815260200191508051906020019080838360005b8381101561033e578082015181840152602081019050610323565b50505050905090810190601f16801561036b5780820380516001836020036101000a031916815260200191505b509d505050505050505050505050505060405180910390f35b34801561039057600080fd5b50610399610aff565b6040518082815260200191505060405180910390f35b3480156103bb57600080fd5b506106d1600480360360a08110156103d257600080fd5b81019080803590602001906401000000008111156103ef57600080fd5b82018360208201111561040157600080fd5b8035906020019184600183028401116401000000008311171561042357600080fd5b91908080601f016020809104026020016040519081016040528093929190818152602001838380828437600081840152601f19601f8201169050808301925050505050505091929192908035906020019064010000000081111561048657600080fd5b82018360208201111561049857600080fd5b803590602001918460018302840111640100000000831117156104ba57600080fd5b91908080601f016020809104026020016040519081016040528093929190818152602001838380828437600081840152601f19601f8201169050808301925050505050505091929192908035906020019064010000000081111561051d57600080fd5b82018360208201111561052f57600080fd5b8035906020019184600183028401116401000000008311171561055157600080fd5b91908080601f016020809104026020016040519081016040528093929190818152602001838380828437600081840152601f19601f820116905080830192505050505050509192919290803590602001906401000000008111156105b457600080fd5b8201836020820111156105c657600080fd5b803590602001918460018302840111640100000000831117156105e857600080fd5b91908080601f016020809104026020016040519081016040528093929190818152602001838380828437600081840152601f19601f8201169050808301925050505050505091929192908035906020019064010000000081111561064b57600080fd5b82018360208201111561065d57600080fd5b8035906020019184600183028401116401000000008311171561067f57600080fd5b91908080601f016020809104026020016040519081016040528093929190818152602001838380828437600081840152601f19601f820116905080830192505050505050509192919290505050610b05565b005b6106ff600480360360208110156106e957600080fd5b8101908080359060200190929190505050610f85565b005b60008054600181600116156101000203166002900480601f0160208091040260200160405190810160405280929190818152602001828054600181600116156101000203166002900480156107975780601f1061076c57610100808354040283529160200191610797565b820191906000526020600020905b81548152906001019060200180831161077a57829003601f168201915b505050505081565b6002602052806000526040600020600091509050806000015490806001018054600181600116156101000203166002900480601f0160208091040260200160405190810160405280929190818152602001828054600181600116156101000203166002900480156108515780601f1061082657610100808354040283529160200191610851565b820191906000526020600020905b81548152906001019060200180831161083457829003601f168201915b505050505090806002018054600181600116156101000203166002900480601f0160208091040260200160405190810160405280929190818152602001828054600181600116156101000203166002900480156108ef5780601f106108c4576101008083540402835291602001916108ef565b820191906000526020600020905b8154815290600101906020018083116108d257829003601f168201915b505050505090806003018054600181600116156101000203166002900480601f01602080910402602001604051908101604052809291908181526020018280546001816001161561010002031660029004801561098d5780601f106109625761010080835404028352916020019161098d565b820191906000526020600020905b81548152906001019060200180831161097057829003601f168201915b505050505090806004018054600181600116156101000203166002900480601f016020809104026020016040519081016040528092919081815260200182805460018160011615610100020316600290048015610a2b5780601f10610a0057610100808354040283529160200191610a2b565b820191906000526020600020905b815481529060010190602001808311610a0e57829003601f168201915b505050505090806005018054600181600116156101000203166002900480601f016020809104026020016040519081016040528092919081815260200182805460018160011615610100020316600290048015610ac95780601f10610a9e57610100808354040283529160200191610ac9565b820191906000526020600020905b815481529060010190602001808311610aac57829003601f168201915b5050505050908060060154908060070160009054906101000a900473ffffffffffffffffffffffffffffffffffffffff16905088565b60015481565b6000855111610b1357600080fd5b6000845111610b2157600080fd5b6000825111610b2f57600080fd5b6000835111610b3d57600080fd5b6000815111610b4b57600080fd5b600073ffffffffffffffffffffffffffffffffffffffff163373ffffffffffffffffffffffffffffffffffffffff161415610b8557600080fd5b60018054016001819055506040518061010001604052806001548152602001858152602001868152602001848152602001838152602001828152602001600081526020013373ffffffffffffffffffffffffffffffffffffffff16815250600260006001548152602001908152602001600020600082015181600001556020820151816001019080519060200190610c1e929190611775565b506040820151816002019080519060200190610c3b929190611775565b506060820151816003019080519060200190610c58929190611775565b506080820151816004019080519060200190610c75929190611775565b5060a0820151816005019080519060200190610c92929190611775565b5060c0820151816006015560e08201518160070160006101000a81548173ffffffffffffffffffffffffffffffffffffffff021916908373ffffffffffffffffffffffffffffffffffffffff1602179055509050507ff54862041babbfeef5da395ed28cd8a6eb8fef11d752ceb69e2e4f46f73cae4960015485878686866000336040518089815260200180602001806020018060200180602001806020018881526020018773ffffffffffffffffffffffffffffffffffffffff1673ffffffffffffffffffffffffffffffffffffffff16815260200186810386528d818151815260200191508051906020019080838360005b83811015610da1578082015181840152602081019050610d86565b50505050905090810190601f168015610dce5780820380516001836020036101000a031916815260200191505b5086810385528c818151815260200191508051906020019080838360005b83811015610e07578082015181840152602081019050610dec565b50505050905090810190601f168015610e345780820380516001836020036101000a031916815260200191505b5086810384528b818151815260200191508051906020019080838360005b83811015610e6d578082015181840152602081019050610e52565b50505050905090810190601f168015610e9a5780820380516001836020036101000a031916815260200191505b5086810383528a818151815260200191508051906020019080838360005b83811015610ed3578082015181840152602081019050610eb8565b50505050905090810190601f168015610f005780820380516001836020036101000a031916815260200191505b50868103825289818151815260200191508051906020019080838360005b83811015610f39578082015181840152602081019050610f1e565b50505050905090810190601f168015610f665780820380516001836020036101000a031916815260200191505b509d505050505050505050505050505060405180910390a15050505050565b600081118015610f9757506001548111155b610fa057600080fd5b610fa86117f5565b600260008381526020019081526020016000206040518061010001604052908160008201548152602001600182018054600181600116156101000203166002900480601f01602080910402602001604051908101604052809291908181526020018280546001816001161561010002031660029004801561106a5780601f1061103f5761010080835404028352916020019161106a565b820191906000526020600020905b81548152906001019060200180831161104d57829003601f168201915b50505050508152602001600282018054600181600116156101000203166002900480601f01602080910402602001604051908101604052809291908181526020018280546001816001161561010002031660029004801561110c5780601f106110e15761010080835404028352916020019161110c565b820191906000526020600020905b8154815290600101906020018083116110ef57829003601f168201915b50505050508152602001600382018054600181600116156101000203166002900480601f0160208091040260200160405190810160405280929190818152602001828054600181600116156101000203166002900480156111ae5780601f10611183576101008083540402835291602001916111ae565b820191906000526020600020905b81548152906001019060200180831161119157829003601f168201915b50505050508152602001600482018054600181600116156101000203166002900480601f0160208091040260200160405190810160405280929190818152602001828054600181600116156101000203166002900480156112505780601f1061122557610100808354040283529160200191611250565b820191906000526020600020905b81548152906001019060200180831161123357829003601f168201915b50505050508152602001600582018054600181600116156101000203166002900480601f0160208091040260200160405190810160405280929190818152602001828054600181600116156101000203166002900480156112f25780601f106112c7576101008083540402835291602001916112f2565b820191906000526020600020905b8154815290600101906020018083116112d557829003601f168201915b50505050508152602001600682015481526020016007820160009054906101000a900473ffffffffffffffffffffffffffffffffffffffff1673ffffffffffffffffffffffffffffffffffffffff1673ffffffffffffffffffffffffffffffffffffffff1681525050905060008160e0015190508073ffffffffffffffffffffffffffffffffffffffff166108fc349081150290604051600060405180830381858888f193505050501580156113ac573d6000803e3d6000fd5b50348260c00151018260c001818152505081600260008581526020019081526020016000206000820151816000015560208201518160010190805190602001906113f7929190611775565b506040820151816002019080519060200190611414929190611775565b506060820151816003019080519060200190611431929190611775565b50608082015181600401908051906020019061144e929190611775565b5060a082015181600501908051906020019061146b929190611775565b5060c0820151816006015560e08201518160070160006101000a81548173ffffffffffffffffffffffffffffffffffffffff021916908373ffffffffffffffffffffffffffffffffffffffff1602179055509050507ff54862041babbfeef5da395ed28cd8a6eb8fef11d752ceb69e2e4f46f73cae49826000015183602001518460400151856060015186608001518760a001518860c00151886040518089815260200180602001806020018060200180602001806020018881526020018773ffffffffffffffffffffffffffffffffffffffff1673ffffffffffffffffffffffffffffffffffffffff16815260200186810386528d818151815260200191508051906020019080838360005b83811015611593578082015181840152602081019050611578565b50505050905090810190601f1680156115c05780820380516001836020036101000a031916815260200191505b5086810385528c818151815260200191508051906020019080838360005b838110156115f95780820151818401526020810190506115de565b50505050905090810190601f1680156116265780820380516001836020036101000a031916815260200191505b5086810384528b818151815260200191508051906020019080838360005b8381101561165f578082015181840152602081019050611644565b50505050905090810190601f16801561168c5780820380516001836020036101000a031916815260200191505b5086810383528a818151815260200191508051906020019080838360005b838110156116c55780820151818401526020810190506116aa565b50505050905090810190601f1680156116f25780820380516001836020036101000a031916815260200191505b50868103825289818151815260200191508051906020019080838360005b8381101561172b578082015181840152602081019050611710565b50505050905090810190601f1680156117585780820380516001836020036101000a031916815260200191505b509d505050505050505050505050505060405180910390a1505050565b828054600181600116156101000203166002900490600052602060002090601f016020900481019282601f106117b657805160ff19168380011785556117e4565b828001600101855582156117e4579182015b828111156117e35782518255916020019190600101906117c8565b5b5090506117f19190611850565b5090565b60405180610100016040528060008152602001606081526020016060815260200160608152602001606081526020016060815260200160008152602001600073ffffffffffffffffffffffffffffffffffffffff1681525090565b61187291905b8082111561186e576000816000905550600101611856565b5090565b9056fea265627a7a7231582025d71050b1a86335810cff84acba7f6c0ba1c40f905f9639da281fd779ab0ddc64736f6c63430005100032",
  "source": "pragma solidity ^0.5.0;\n\ncontract Pathon {\n  string public name = \"Pathon\";\n  \n  // Store project details\n  uint public postCount = 0;\n  mapping(uint => Post) public posts;\n\n  struct Post {\n    uint id;\n    string title;\n    string imageHash;\n    string tagline;\n    string description;\n    string projectUrl;\n    uint tipAmount;\n    address payable author;\n  }\n\n  event PostCreated (\n    uint id,\n    string title,\n    string imageHash,\n    string tagline,\n    string description,\n    string projectUrl,\n    uint tipAmount,\n    address payable author\n  );\n\n  event PostTipped (\n    uint id,\n    string title,\n    string imageHash,\n    string tagline,\n    string description,\n    string projectUrl,\n    uint tipAmount,\n    address payable author\n  );\n\n  // Create projects\n  function uploadPost(string memory _imgHash, string memory _title, string memory _tagline, string memory _description, string memory _projecturl) public {\n    require(bytes(_imgHash).length > 0);\n    require(bytes(_title).length > 0);\n    require(bytes(_description).length > 0);\n    require(bytes(_tagline).length > 0);\n    require(bytes(_projecturl).length > 0);\n    require(msg.sender != address(0x0));\n    postCount = postCount + 1;\n    posts[postCount] = Post(postCount, _title, _imgHash, _tagline, _description, _projecturl, 0, msg.sender);\n    emit PostCreated(postCount, _title, _imgHash, _tagline, _description, _projecturl, 0, msg.sender);\n  }\n\n  function tipPostOwner(uint _id) public payable {\n\n    require(_id > 0 && _id <= postCount);\n\n    Post memory _post = posts[_id];\n    address payable _author = _post.author;\n    address(_author).transfer(msg.value);\n    _post.tipAmount = _post.tipAmount + msg.value;\n    posts[_id] = _post;\n    emit PostCreated(_post.id, _post.title, _post.imageHash, _post.tagline, _post.description, _post.projectUrl, _post.tipAmount, _author);\n  }\n\n  // Tip projects\n}",
  "sourcePath": "/Users/dewanshrawat/Desktop/pathon/src/contracts/Pathon.sol",
  "compiler": {
    "name": "solc",
    "version": "0.5.16+commit.9c3226ce.Emscripten.clang"
  },
  "schemaVersion": "3.2.3",
  "updatedAt": "2021-07-26T14:58:07.079Z",
  "networkType": "ethereum",
  "devdoc": {
    "methods": {}
  },
  "userdoc": {
    "methods": {}
  }
}